:1000000019C033C032C031C030C02FC02EC02DC087
:100010002CC02BC02AC029C028C027C026C025C09C
:1000200024C023C022C03CC5564F43002800707036
:100030006D002E0011241FBECFEFD2E0DEBFCDBF7A
:1000400011E0A0E0B1E0E2E0FFE002C005900D9217
:10005000A032B107D9F711E0A0E2B1E001C01D92D2
:10006000A137B107E1F7A3D24AC7CACF90917C006C
:100070008F70907F892B806480937C0080917A00C0
:10008000887F866880937A0080917A00806480936C
:100090007A0080917A0086FDFCCF20917800309123
:1000A0007900932F80E030E0282B392BC901089587
:1000B0005A9808955A9A0895529A5A9A0895DF9331
:1000C000CF930F92CDB7DEB78983F2DF898184D4D5
:1000D000F1DF0F90CF91DF9108950F931F93DF937E
:1000E000CF930F92CDB7DEB7803111F008E001C099
:1000F00008E110E005C0802F6983E1DF1F5F69819F
:100100001617C8F30F90CF91DF911F910F910895AB
:100110000F931F93DF93CF930F92CDB7DEB780314C
:1001200011F004E001C004E110E005C0802F6983F4
:10013000C6DF1F5F69811617C8F30F90CF91DF915B
:100140001F910F91089580912001909121010895B0
:100150009093210180932001089580E0089590E01C
:10016000880F991F845D9F4FFC0125913491CB012D
:10017000B90190C690E0880F991F8E5C9F4FFC01DB
:1001800025913491CB01B90185C6DF93CF9300D07F
:1001900000D0CDB7DEB719821A821B821C82682F6D
:1001A00070E0660F771F660F771F60507040CE01BA
:1001B000019644E050E07ED669817A818B819C81F2
:1001C0000F900F900F900F90CF91DF910895DF93D4
:1001D000CF9300D000D0CDB7DEB749835A836B836D
:1001E0007C83682F70E0660F771F660F771F605063
:1001F0007040CE01019644E050E06BD60F900F9016
:100200000F900F90CF91DF910895DF93CF93CDB7EB
:10021000DEB764970FB6F894DEBF0FBECDBFFE0108
:100220003196ACE0B1E094E10D9001929150E1F78C
:10023000882351F4E62FF0E0EE0FFF1FE40FF11DCD
:10024000EC0FFD1F818101C080E064960FB6F89429
:10025000DEBF0FBECDBFCF91DF910895282F30E0D4
:10026000220F331F220F331F20503F4FC901089523
:10027000282F30E0220F331F220F331F2C5F3E4FF9
:10028000C9010895282F30E0220F331F220F331F9A
:10029000285F3E4FC90108959BB19F77882311F0D5
:1002A00080E801C080E0982B9BB9089580E0F4DFDE
:1002B000579A8AE18A95F1F781E0EEDF80E197E2D3
:1002C0000197F1F70895FF920F931F93082F81E094
:1002D000011180E0E1DF12E4812F8A95F1F7F9B096
:1002E000812F8A95F1F7802FD7DF812F8A95F1F73B
:1002F00089B11A95F1F787FF0CC08F2D992787FDDB
:10030000909580959095392F331F3327331F832F76
:1003100002C080E090E01F910F91FF9008955798E0
:1003200081E0D1DF579A08950F931F93DF93CF9306
:100330000F92CDB7DEB7182F08E0812F8078698340
:10034000C2DF110F015069810023B9F7862FBBDF8F
:10035000E6DF0F90CF91DF911F910F910895CF921B
:10036000DF92EF92FF920F931F93DF93CF930F9241
:10037000CDB7DEB77B01082F192FCC24DD2417C0A1
:10038000F80181918F010894C11CD11CCE14DF04A7
:1003900039F461E070E0442329F060E070E002C0CD
:1003A00061E070E04983C0DF4981882329F0CE14E1
:1003B000DF0430F381E001C080E00F90CF91DF9146
:1003C0001F910F91FF90EF90DF90CF900895AF9223
:1003D000BF92CF92DF92EF92FF920F931F93DF9322
:1003E000CF930F92CDB7DEB77B01082F192FAA2428
:1003F000BB241EC00894A11CB11C91E0AE14BF0424
:1004000009F490E0579888E0C82EDD2481E09983B4
:100410005ADFDD0CD82ACA949981CC20B9F7579AB3
:10042000F801D1928F01892F4EDF79DF882329F0DF
:10043000AE14BF04F8F281E001C080E00F90CF91CC
:10044000DF911F910F91FF90EF90DF90CF90BF90C1
:10045000AF90089580E020DF88E28A95F1F785E586
:1004600061E062CF809322010895EF92FF920F9393
:100470001F93DF93CF9300D000D0CDB7DEB77C01C0
:100480008A0180912201898383E08A837B836C8344
:100490000DDFF894DFDFCE01019664E070E040E00C
:1004A0005EDF882329F0C701B80191DF882311F4AA
:1004B000789402C0789481E00F900F900F900F9085
:1004C000CF91DF911F910F91FF90EF9008950F93BF
:1004D0001F93FC014081318120E0828190E0822BDA
:1004E000932B25B134E0232725B9413119F043334B
:1004F00099F502C02DDE30C08032910568F18097F9
:10050000803251F5438150E060E070E0762F652F36
:10051000542F4427048110E020E030E0402B512B81
:10052000622B732B762F652F542F4427058110E003
:1005300020E030E0402B512B622B732B762F652F60
:10054000542F4427068110E020E030E0402B512B4F
:10055000622B732B892F3BDE1F910F910895229AF6
:100560002A98219A29982A9A81E00DD480EA7ADF84
:100570008BE691E06AEF70E046E050E076DF85E0E0
:100580004FD28BE093E06FD287E692E067D237D20A
:10059000509A5898589A80E047D480E04AD42A98D4
:1005A00021D28ADD81E060E0CCD329980895D7DF9D
:1005B00080E06FEFADDDCAEBD0E080E061E08DDD83
:1005C0002197D9F77894FFCFCF92DF92EF92FF92E5
:1005D0000F931F93C82E44E6D42EEE24FF248701E8
:1005E0008C2DBBDD43DD9C0140E050E0E20EF31EAC
:1005F000041F151FDA94A1F7C801B70124E630E003
:1006000040E050E025D4C9011F910F91FF90EF9079
:10061000DF90CF9008952F923F924F925F926F920A
:100620007F928F929F92AF92BF92CF92DF92EF9282
:10063000FF920F931F93DF93CF93CDB7DEB7AA97A7
:100640000FB6F894DEBF0FBECDBF8E01095E1F4FFF
:1006500084E1F80111928A95E9F775DD1E821D8209
:1006600018861F821A8619861B861C861D861E8682
:100670001F86188A198A1A8A1B8A1C8A1D8A1E8A52
:1006800019821A821B821C828130910559F08130B7
:10069000910520F08730910591F40CC081E08F8B9B
:1006A00061E07EC1C8016BE671E046E050E0F9D33D
:1006B00066E076C163E170E080E090E02BC08032BC
:1006C000910508F46CC180977C01843209F445C01F
:1006D000853238F48031B9F08032D1F0882379F056
:1006E00049C18C32D1F18D3220F4883209F042C1F7
:1006F00014C08033A9F0843309F03CC11EC0892F97
:10070000B8012DDD03C0892FB80134DD60E148C197
:10071000892F3BDDA80147D342C1892F9FDD02C04D
:10072000892FA6DDBC01CE01019644E050E0B9D38B
:1007300069817A818B819C81EDCF8F2DA3DDBC01F6
:10074000CE01019644E050E0ACD369817A818B817F
:100750009C81AE01495E5F4FDECF8F2D2DD33B01D3
:100760004C018F2D37D35B016C018F2D41D3A60C2B
:10077000B71CC81CD91CA60EB71EC81ED91EAB8636
:10078000BC86CD86DE868F2D17D35B016C018F2D45
:1007900021D36A0D7B1D8C1D9D1D6F87788B898BE6
:1007A0009A8B8F2D09D36B8B7C8B8D8B9E8B8F2D92
:1007B0003BD38F2D3ED300E21EE4C8010197F1F731
:1007C0008F2D02DF1C019E838D838F2D3CD3C801AA
:1007D0000197F1F78F2DF8DE3C0198878F838F2DDD
:1007E0002DD3C8010197F1F78F2DEEDE8C019A878A
:1007F00089878F2D0BD3EAE0660F771F881F991F1B
:10080000EA95D1F720E137E240E050E021D34424DB
:100810005524221633064406550638F4DA01C90178
:1008200082199309A409B50906C0D201C101821B2E
:10083000930BA40BB50B89839A83AB83BC83882469
:100840009924621673068406950638F459016A01E4
:10085000A618B708C808D90806C064015301A21A2F
:10086000B30AC40AD50A8A159B05AC05BD0510F468
:100870005C016D01A816B906CA06DB06B1F0621666
:1008800073068406950638F439014A016218730824
:100890008408950804C0621A730A840A950A69825A
:1008A0007A828B829C8261E001C060E089819A81BA
:1008B000AB81BC815801CC24DD24A216B306C4064A
:1008C000D50628F42A193B094C095D0908C03501F1
:1008D0004601621A730A840A950AA40193018217D9
:1008E0009307A407B50710F49C01AD012817390739
:1008F0004A075B0709F062E02E2D2C3209F04FC049
:10090000062F10E0F801EE0FFF1F5E010894A11CF6
:10091000B11CEA0DFB1D6481758180E090E0AE01A1
:10092000495E5F4F40D2F801EE0FFF1FEE0FFF1F31
:10093000EA0DFB1D6285738584859585AE01455E54
:100940005F4F31D28F2D62D2AE01415E5F4F2BD20D
:1009500068E873E180E090E0AE014D5D5F4F23D227
:1009600060E074E080E090E0AE01495D5F4F1BD233
:1009700064E116C00E2D10E00853104053E01695A8
:1009800007955A95E1F78F2D602F40E03EDC8F8B65
:100990008F2D602F41E039DC888F62E001C064E078
:1009A000CE01479641D0AA960FB6F894DEBF0FBE8F
:1009B000CDBFCF91DF911F910F91FF90EF90DF900E
:1009C000CF90BF90AF909F908F907F906F905F90EF
:1009D0004F903F902F9008958EBD0DB407FEFDCF30
:1009E0008EB5089584B18C6284B985B1837D85B953
:1009F0008CB583618CBD8CB580648CBD08951092DC
:100A00003B01E9EBF0E080818E7F808380818D7FE8
:100A1000808380E28093B80085E48093BC000895D1
:100A2000880F8093BA0008956531A0F420913B01AE
:100A3000243091F460935401DC01E7E5F1E070E0CB
:100A40006E0F7F1F02C08D918193E617F707D9F7CC
:100A500080E0089581E0089582E008959093520126
:100A60008093510108959093560180935501089504
:100A7000882311F085EC01C085E88093BC000895BF
:100A800085ED8093BC008091BC0084FDFCCF10926A
:100A90003B01089585EC8093BC0010923B010895C2
:100AA0001F920F920FB60F9211242F933F934F93E3
:100AB0005F936F937F938F939F93AF93BF93EF93C6
:100AC000FF938091B90090E0887F90708036910507
:100AD00009F4C2C081369105E4F58832910509F424
:100AE0007EC089329105C4F48031910509F472C049
:100AF0008131910544F4009709F40FC188309105C4
:100B000009F00EC167C08831910509F468C08032D0
:100B1000910509F005C178C08034910509F48AC0B7
:100B2000813491054CF48033910509F46FC088330A
:100B3000910509F0F5C06EC08035910509F46EC0CD
:100B40008835910509F47BC08834910509F0E8C027
:100B5000E6C08839910509F4D8C089399105ECF4CB
:100B60008837910509F478C0893791054CF48836A7
:100B7000910509F471C08037910509F0D1C06CC0AE
:100B80008838910509F4C1C08039910509F46AC01B
:100B90008038910509F0C4C065C0803B910509F417
:100BA0008CC0813B91054CF4803A910509F46CC0EE
:100BB000883A910509F0B4C080C0803C910509F4E1
:100BC000A7C0883C910509F4A3C0883B910509F0B2
:100BD000A7C088C0809123018093BB0013C090916F
:100BE000240180912501981708F099C08091240173
:100BF000E82FF0E0EA5DFE4F90819093BB008F5F9D
:100C00008093240181E082C080E201C080E3809370
:100C10003A0185C088E380933A014DC08091240158
:100C20009091BB00E82FF0E0EA5DFE4F90838F5F6C
:100C300080932401909124018091250163C08091CB
:100C400024019091BB00E82FF0E0EA5DFE4F908315
:100C50008F5F8093240163C083E080933B011092F7
:100C60003C01D0CF80913C01843108F04EC080918E
:100C70003C019091BB00E82FF0E0E35CFE4F9083D5
:100C80008F5F80933C01BECF80913C01843130F472
:100C9000E0913C01F0E0E35CFE4F1082F1DE6091F8
:100CA0003C01E0915101F09152018DE391E070E03F
:100CB000099510923C01EEDE33C084E080933B0145
:100CC0001092530110925401E0915501F091560198
:100CD000099580915401882329F481E0809354017F
:100CE0001092570180915301E82FF0E0E95AFE4F2E
:100CF00090819093BB008F5F80935301909153013B
:100D000080915401981708F47DCF80E0B1DE08C0CF
:100D100081E0AEDE10923B0103C010923A01B0DEDA
:100D2000FF91EF91BF91AF919F918F917F916F91C3
:100D30005F914F913F912F910F900FBE0F901F9099
:100D4000189590E048EC50E01BC0662311F4299AF6
:100D500001C02A9A24EF31E0FA013197F1F72150CE
:100D60003040D1F7662311F4299801C02A9820ED6C
:100D700037E0FA013197F1F721503040D1F79F5F0A
:100D8000981718F3089590E048EC50E009C020E16E
:100D900037E2FA013197F1F721503040D1F79F5FE8
:100DA0009817A8F30895FA019193DA0111968C939C
:100DB0001197718362830895882329F420EF35E524
:100DC00040E050E004C02FEF3FEF4FEF5FEFB9017D
:100DD000CA010895882329F420EF35E540E050E06A
:100DE00004C02FEF3FEF4FEF5FEFB901CA01089545
:100DF000882329F420EC34ED41E050E004C02FEFCB
:100E00003FEF4FEF5FEFB901CA010895882329F43E
:100E100028E833E140E050E004C02FEF3FEF4FEF10
:100E20005FEFB901CA010895882311F43F984798EC
:100E30000895882311F4519859980895882311F43E
:100E40003F9A47980895882311F4519A5998089524
:100E5000A1E21A2EAA1BBB1BFD010DC0AA1FBB1FBE
:100E6000EE1FFF1FA217B307E407F50720F0A21B30
:100E7000B30BE40BF50B661F771F881F991F1A949D
:100E800069F760957095809590959B01AC01BD01C7
:100E9000CF010895FB01DC0105900D920020E1F7E0
:100EA0000895FB01DC0102C001900D9241505040B9
:100EB000D8F70895DC01862FE82FF999FECF1FBAE5
:100EC00005C0E1BDF89AE39500B40D924150C8F712
:100ED0000895DC01862F02C02D9104D04150E0F727
:100EE0000895262FF999FECF1FBA1FBA81BD20BDE4
:100EF0000FB6F894FA9AF99A0FBE01960895F894ED
:020F0000FFCF21
:100F020085B1053ACDCCCC3F6F12833AFE13C31D97
:100F12009D2B88367544615E4E883ADD35FEFFFFB3
:00000001FF
