:1000000019C033C032C031C030C02FC02EC02DC087
:100010002CC02BC02AC029C028C027C026C025C09C
:1000200024C023C022C056C6564F4300280070701B
:100030006D002E0011241FBECFEFD2E0DEBFCDBF7A
:1000400011E0A0E0B1E0E0EAF1E102C005900D921C
:10005000A033B107D9F711E0A0E3B1E001C01D92D0
:10006000A537B107E1F750D399C8CACF90917C006A
:100070008F70907F892B806480937C0080917A00C0
:10008000887F866880937A0080917A00806480936C
:100090007A0080917A0086FDFCCF20917800309123
:1000A0007900932F80E030E0282B392BC901089587
:1000B0005A9808955A9A0895529A5A9A0895DF9331
:1000C000CF930F92CDB7DEB78983F2DF89819ED5BA
:1000D000F1DF0F90CF91DF9108950F931F93DF937E
:1000E000CF930F92CDB7DEB7803111F008E001C099
:1000F00008E110E005C0802F6983E1DF1F5F69819F
:100100001617C8F30F90CF91DF911F910F910895AB
:100110000F931F93DF93CF930F92CDB7DEB780314C
:1001200011F004E001C004E110E005C0802F6983F4
:10013000C6DF1F5F69811617C8F30F90CF91DF915B
:100140001F910F9108958091300190913101089590
:100150009093310180933001089580E0089590E0FC
:10016000880F991F845D9F4FFC0125913491CB012D
:10017000B901DFC790E0880F991F8E5C9F4FFC018B
:1001800025913491CB01B901D4C7DF93CF9300D02F
:1001900000D0CDB7DEB719821A821B821C82682F6D
:1001A00070E0660F771F660F771F60507040CE01BA
:1001B000019644E050E0CDD769817A818B819C81A2
:1001C0000F900F900F900F90CF91DF910895DF93D4
:1001D000CF9300D000D0CDB7DEB749835A836B836D
:1001E0007C83682F70E0660F771F660F771F605063
:1001F0007040CE01019644E050E0BAD70F900F90C6
:100200000F900F90CF91DF91089590E06BE070E038
:1002100043D7FC01E050FF4F808528CF90E06BE092
:1002200070E03AD7FC01E050FF4F81851FCFBF92AD
:10023000CF92DF92EF92FF920F931F93CF93DF93B2
:10024000B82E90E06BE070E027D7FC01E050FF4F44
:10025000C080D180E280F3808B2DD7DF8C018B2D85
:10026000DDDFEC01BC0180E090E028EE33E040E00F
:1002700050E024D70C1B1D0B980140E050E01ED726
:10028000A701960134D7B901CA0129E130E040E065
:1002900050E014D79B01AC0184E156954795379502
:1002A00027958A95D1F7B901CA01DF91CF911F91A6
:1002B0000F91FF90EF90DF90CF90BF9008958F92B5
:1002C0009F92AF92BF92CF92DF92EF92FF920F93E5
:1002D0001F93282F962E90E06BE070E0DDD6FC0196
:1002E000E050FF4FA480B580C680D780822F90E079
:1002F0006BE070E0D1D6FC01E050FF4F8284822F8A
:1003000096DF7B018C01A616B706C806D90620F435
:10031000882D692DFDDE08C06A157B058C059D05BD
:1003200018F4882D692DD9DEAE18BF08C00AD10A8D
:10033000B501C6011F910F91FF90EF90DF90CF9014
:10034000BF90AF909F908F900895DF93CF93CDB7DC
:10035000DEB764970FB6F894DEBF0FBECDBFFE01C7
:100360003196ABE1B1E094E10D9001929150E1F74B
:10037000882351F4E62FF0E0EE0FFF1FE40FF11D8C
:10038000EC0FFD1F818101C080E064960FB6F894E8
:10039000DEBF0FBECDBFCF91DF910895282F30E093
:1003A000220F331F220F331F255F3E4FC9010895CF
:1003B000282F30E0220F331F220F331F215F3E4FC3
:1003C000C9010895282F30E0220F331F220F331F59
:1003D0002D5E3E4FC9010895E82FF0E0EE0FFF1F9C
:1003E000EE0FFF1FE95EFE4F608171818281938174
:1003F00008959BB19F77882311F080E801C080E0C9
:10040000982B9BB9089580E0F4DF579A8AE18A958A
:10041000F1F781E0EEDF80E197E20197F1F70895CF
:10042000FF920F931F93082F81E0011180E0E1DF1D
:1004300012E4812F8A95F1F7F9B0812F8A95F1F7AF
:10044000802FD7DF812F8A95F1F789B11A95F1F7BF
:1004500087FF0CC08F2D992787FD909580959095EB
:10046000392F331F3327331F832F02C080E090E0E2
:100470001F910F91FF900895579881E0D1DF579A0F
:1004800008950F931F93DF93CF930F92CDB7DEB7ED
:10049000182F08E0812F80786983C2DF110F015087
:1004A00069810023B9F7862FBBDFE6DF0F90CF917C
:1004B000DF911F910F910895CF92DF92EF92FF92FB
:1004C0000F931F93DF93CF930F92CDB7DEB77B01CE
:1004D000082F192FCC24DD2417C0F80181918F013A
:1004E0000894C11CD11CCE14DF0439F461E070E023
:1004F000442329F060E070E002C061E070E04983CD
:10050000C0DF4981882329F0CE14DF0430F381E075
:1005100001C080E00F90CF91DF911F910F91FF906C
:10052000EF90DF90CF900895AF92BF92CF92DF927D
:10053000EF92FF920F931F93DF93CF930F92CDB75C
:10054000DEB77B01082F192FAA24BB241EC00894F4
:10055000A11CB11C91E0AE14BF0409F490E05798BF
:1005600088E0C82EDD2481E099835ADFDD0CD82A8B
:10057000CA949981CC20B9F7579AF801D1928F018A
:10058000892F4EDF79DF882329F0AE14BF04F8F2FB
:1005900081E001C080E00F90CF91DF911F910F911A
:1005A000FF90EF90DF90CF90BF90AF90089580E0E4
:1005B00020DF88E28A95F1F785E561E062CF8093DC
:1005C00032010895EF92FF920F931F93DF93CF9321
:1005D00000D000D0CDB7DEB77C018A018091320116
:1005E000898383E08A837B836C830DDFF894DFDF6C
:1005F000CE01019664E070E040E05EDF882329F0E0
:10060000C701B80191DF882311F4789402C078946F
:1006100081E00F900F900F900F90CF91DF911F917D
:100620000F91FF90EF9008950F931F93FC0140816D
:10063000318120E0828190E0822B932B25B134E040
:10064000232725B9413119F0433399F502C080DDE4
:1006500030C08032910568F18097803251F5438136
:1006600050E060E070E0762F652F542F442704811E
:1006700010E020E030E0402B512B622B732B762FC3
:10068000652F542F4427058110E020E030E0402BF7
:10069000512B622B732B762F652F542F4427068105
:1006A00010E020E030E0402B512B622B732B892F80
:1006B0008EDD1F910F910895229A2A98219A2998E8
:1006C0002A9A81E07AD480EA7ADF8FE691E06AEFB5
:1006D00070E046E050E076DF85E0BCD28BEC93E042
:1006E000DCD284E193E0D4D2A4D2509A5898589A9C
:1006F00080E0BED480E0C1D42A988ED2DDDC81E0D7
:1007000060E039D429980895D7DF789400E011E0AB
:1007100080E0612FD4DDDC01CB01181619061A0622
:100720001B0614F481E001C08FEF801721F48823A9
:1007300039F01F5F03C0882319F011E0082F01C0B2
:1007400011E083E03AD4E4CFCF92DF92EF92FF92B0
:100750000F931F93C82E44E6D42EEE24FF24870166
:100760008C2DFBDC83DC9C0140E050E0E20EF31EAC
:10077000041F151FDA94A1F7C801B70124E630E081
:1007800040E050E0B4D4C9011F910F91FF90EF9069
:10079000DF90CF9008952F923F924F925F926F9289
:1007A0007F928F929F92AF92BF92CF92DF92FF92F1
:1007B0000F931F93DF93CF93CDB7DEB7E1970FB6BB
:1007C000F894DEBF0FBECDBF8E01095E1F4F80E1E2
:1007D000D8011D928A95E9F7B6DC1E821D82188623
:1007E0001F821A8619861B861C861D861E861F86FA
:1007F000188A198A1A8A1B8A1C8A1D8A1E8A1982DB
:100800001A821B821C828130910559F0813091053A
:1008100020F08730910591F40CC081E08F8B61E06E
:10082000DAC1C8016FE671E046E050E089D466E0C5
:10083000D2C160E170E080E090E03BC08032910581
:1008400008F4C8C18097F92E282F8432E9F1853247
:1008500038F48031B9F08032D1F0882379F0A5C125
:100860008C3291F18D3220F4883209F09EC112C091
:10087000803399F0843309F098C11DC0892FB801E5
:100880006EDC03C0892FB80175DC60E1A4C1892F3B
:100890007CDC0FC0892F82DD02C0892F89DDBC017D
:1008A000CE01019644E050E04BD469817A818B817E
:1008B0009C81A80178C1892F85DDBC01CE010196FC
:1008C00044E050E03DD468C18F2D29AB8FD33B016C
:1008D0004C018F2D99D35B016C018F2DA3D3A60CF6
:1008E000B71CC81CD91CA60EB71EC81ED91EAB86C5
:1008F000BC86CD86DE868F2D79D35B016C018F2D72
:1009000083D36A0D7B1D8C1D9D1D6F87788B898B12
:100910009A8B8F2D6BD36B8B7C8B8D8B9E8B8F2DBE
:10092000A7D38F2DAAD300E21EE4C8010197F1F7E7
:100930008F2D0ADF5C019E838D838F2DA8D3C80184
:100940000197F1F78F2D00DF4C0198878F838F2D52
:1009500099D3C8010197F1F78F2DF6DE9A87898721
:100960008F2D6ED329A9A816B90640F08F2D71D30B
:1009700029A98816990620F481E003C080E001C00F
:1009800082E03E010894611C711C882E99242C324F
:10099000F1F4F401EE0FFF1FE60DF71D6481758180
:1009A00080E090E0AE01495E5F4F17D3F401EE0F97
:1009B000FF1FEE0FFF1FE60DF71D6285738584850F
:1009C0009585AE01455E5F4F08D368E004C1F40130
:1009D000EE0FFF1FE60DF71D848195819CA78BA765
:1009E000A0E0B0E08DA79EA7AFA7B8ABBC01CD013A
:1009F00022E330E040E050E061D36FA378A789A7FD
:100A00009AA78F2D2FD3A82EBB24CC24DD247AE0E7
:100A1000AA0CBB1CCC1CDD1C7A95D1F78FA198A524
:100A2000A9A5BAA5A816B906CA06DB0628F4198234
:100A30001A821B821C8288C08FA198A5A9A5BAA57D
:100A4000A81AB90ACA0ADB0AA982BA82CB82DC8256
:100A5000F401EE0FFF1FEE0FFF1FE60DF71D62847E
:100A600073848484958422242A94322C2101C20127
:100A7000B101A60195013BD3261537054805590557
:100A800020F5ABA5BCA5109709F45AC0C601B50165
:100A900022E330E040E050E02AD3CA01B901A401CA
:100AA00093010CD3862E672EA82E092F69837A8393
:100AB0008B839C838F2DD6D2682F70E080E090E0EE
:100AC0002DA53EA54FA558A91BC0C601B501A4017F
:100AD0009301F4D2862E672EA82E092F69837A837C
:100AE0008B839C83EBA5FCA5309751F18F2DBAD257
:100AF000682F70E080E090E02FA138A549A55AA5A5
:100B0000DDD29B01AC01682D762D8A2D902FEFD27E
:100B1000022FA32E842E652E29833A834B835C8378
:100B20008F2DA0D2282F30E040E050E0602F7A2DAA
:100B3000882D962DC3D269837A838B839C8304C0CE
:100B400029823A824B825C8269807A808B809C8089
:100B50008F2D42DCA4019301B1D25B016C01A9820B
:100B6000BA82CB82DC82A614B704C804D90448F444
:100B70008FEF9FEFAFEFBFEF89839A83AB83BC8387
:100B80000BC08F2D02DB9B01AC01C601B501AFD2BA
:100B900029833A834B835C8369817A818B819C8131
:100BA000AE01495E5F4F19D215C0022F10E0085305
:100BB000104053E0169507955A95E1F78F2D602F59
:100BC00040E0C3DB8F8B8F2D602F41E0BEDB888F31
:100BD00062E001C064E0CE01479640D0E1960FB6D6
:100BE000F894DEBF0FBECDBFCF91DF911F910F9163
:100BF000FF90DF90CF90BF90AF909F908F907F90AD
:100C00006F905F904F903F902F9008958EBD0DB4E0
:100C100007FEFDCF8EB5089584B18C6284B985B18D
:100C2000837D85B98CB583618CBD8CB580648CBDAA
:100C3000089510924701E9EBF0E080818E7F808378
:100C400080818D7F808380E28093B80085E48093EB
:100C5000BC000895880F8093BA0008956131A0F414
:100C600020914701243091F460935C01DC01EFE5B1
:100C7000F1E070E06E0F7F1F02C08D918193E61747
:100C8000F707D9F780E0089581E0089582E008959C
:100C900090935A0180935901089590935E01809337
:100CA0005D010895882311F085EC01C085E88093EB
:100CB000BC00089585ED8093BC008091BC0084FD4C
:100CC000FCCF10924701089585EC8093BC001092F0
:100CD000470108951F920F920FB60F9211242F9380
:100CE0003F934F935F936F937F938F939F93AF93B4
:100CF000BF93EF93FF938091B90090E0887F90704D
:100D00008036910509F4C2C081369105E4F5883238
:100D1000910509F47EC089329105C4F480319105B2
:100D200009F472C08131910544F4009709F40FC1B0
:100D30008830910509F00EC167C08831910509F42A
:100D400068C08032910509F005C178C080349105F2
:100D500009F48AC0813491054CF48033910509F47B
:100D60006FC08833910509F0F5C06EC080359105DC
:100D700009F46EC08835910509F47BC0883491056B
:100D800009F0E8C0E6C08839910509F4D8C089396E
:100D90009105ECF48837910509F478C089379105FD
:100DA0004CF48836910509F471C08037910509F03B
:100DB000D1C06CC08838910509F4C1C08039910553
:100DC00009F46AC08038910509F0C4C065C0803B51
:100DD000910509F48CC0813B91054CF4803A910552
:100DE00009F46CC0883A910509F0B4C080C0803C19
:100DF000910509F4A7C0883C910509F4A3C0883B7C
:100E0000910509F0A7C088C0809133018093BB0091
:100E100013C09091340180913501981708F099C062
:100E200080913401E82FF0E0EA5CFE4F90819093CE
:100E3000BB008F5F8093340181E082C080E201C0FB
:100E400080E38093460185C088E3809346014DC0CE
:100E5000809134019091BB00E82FF0E0EA5CFE4FF6
:100E600090838F5F8093340190913401809135019C
:100E700063C0809134019091BB00E82FF0E0EA5C00
:100E8000FE4F90838F5F8093340163C083E0809333
:100E9000470110924801D0CF80914801803108F07D
:100EA0004EC0809148019091BB00E82FF0E0E75BD5
:100EB000FE4F90838F5F80934801BECF80914801A1
:100EC000803130F4E0914801F0E0E75BFE4F1082A2
:100ED000F1DE60914801E0915901F0915A0189E4F5
:100EE00091E070E0099510924801EEDE33C084E095
:100EF0008093470110925B0110925C01E0915D01CB
:100F0000F0915E01099580915C01882329F481E0CC
:100F100080935C0110925F0180915B01E82FF0E00B
:100F2000E15AFE4F90819093BB008F5F80935B01ED
:100F300090915B0180915C01981708F47DCF80E06F
:100F4000B1DE08C081E0AEDE1092470103C010920E
:100F50004601B0DEFF91EF91BF91AF919F918F91CC
:100F60007F916F915F914F913F912F910F900FBEA5
:100F70000F901F90189590E048EC50E01BC066233E
:100F800011F4299A01C02A9A24EF31E0FA0131972D
:100F9000F1F721503040D1F7662311F4299801C0B0
:100FA0002A9820ED37E0FA013197F1F721503040CF
:100FB000D1F79F5F981718F3089590E048EC50E040
:100FC00009C020E137E2FA013197F1F721503040B2
:100FD000D1F79F5F9817A8F30895FA019193DA016A
:100FE00011968C931197718362830895882329F455
:100FF00020EF35E540E050E004C02FEF3FEF4FEF2A
:101000005FEFB901CA010895882329F420EF35E57F
:1010100040E050E004C02FEF3FEF4FEF5FEFB9012A
:10102000CA010895882329F420EC34ED41E050E012
:1010300004C02FEF3FEF4FEF5FEFB901CA010895F2
:10104000882319F427E033E002C02FEF3FEFC901F6
:101050000895882319F42BED31E002C02FEF3FEF04
:10106000C9010895882311F482E308958FEF08954C
:10107000882311F43F9847980895882311F45198D4
:1010800059980895882311F43F9A47980895882322
:1010900011F4519A599808955527002480FF02C0F1
:1010A000060E571F660F771F6115710521F0969583
:1010B0008795009799F7952F802D0895FF27EE27A4
:1010C000BB27AA2760FF04C0A20FB31FE41FF51FB0
:1010D000220F331F441F551F969587957795679567
:1010E00089F70097760771F7CF01BD010895A1E256
:1010F0001A2EAA1BBB1BFD010DC0AA1FBB1FEE1F92
:10110000FF1FA217B307E407F50720F0A21BB30BDC
:10111000E40BF50B661F771F881F991F1A9469F758
:1011200060957095809590959B01AC01BD01CF01B4
:101130000895FB01DC0105900D920020E1F7089570
:10114000FB01DC0102C001900D9241505040D8F7E4
:101150000895DC01862FE82FF999FECF1FBA05C04C
:10116000E1BDF89AE39500B40D924150C8F7089597
:10117000DC01862F02C02D9104D04150E0F7089584
:10118000262FF999FECF1FBA1FBA81BD20BD0FB619
:10119000F894FA9AF99A0FBE01960895F894FFCF41
:1011A0000A0000004C00000007011085B1053ACD8F
:1011B000CCCC3F17B7D13810270000FE13C31D9DBC
:1011C0002B88367544615E4E883ADD35FEFFFF00A0
:00000001FF
