:1000000019C033C032C031C030C02FC02EC02DC087
:100010002CC02BC02AC029C028C027C026C025C09C
:1000200024C023C022C0A0C5564F430028007070D2
:100030006D002E0011241FBECFEFD2E0DEBFCDBF7A
:1000400011E0A0E0B1E0EEE0F0E102C005900D9219
:10005000A432B107D9F711E0A4E2B1E001C01D92CA
:10006000A936B107E1F7B0D2D0C7CACF90917C00D2
:100070008F70907F892B806480937C0080917A00C0
:10008000887F866880937A0080917A00806480936C
:100090007A0080917A0086FDFCCF20917800309123
:1000A0007900932F80E030E0282B392BC901089587
:1000B0005A9808955A9A0895529A5A9A0895DF9331
:1000C000CF930F92CDB7DEB78983F2DF8981E8D471
:1000D000F1DF0F90CF91DF9108950F931F93DF937E
:1000E000CF930F92CDB7DEB7803111F008E001C099
:1000F00008E110E005C0802F6983E1DF1F5F69819F
:100100001617C8F30F90CF91DF911F910F910895AB
:100110000F931F93DF93CF930F92CDB7DEB780314C
:1001200011F004E001C004E110E005C0802F6983F4
:10013000C6DF1F5F69811617C8F30F90CF91DF915B
:100140001F910F91089580912401909125010895A8
:100150009093250180932401089580E0089590E014
:10016000880F991F845D9F4FFC0125913491CB012D
:10017000B90116C790E0880F991F8E5C9F4FFC0154
:1001800025913491CB01B9010BC7DF93CF9300D0F8
:1001900000D0CDB7DEB719821A821B821C82682F6D
:1001A00070E0660F771F660F771F60507040CE01BA
:1001B000019644E050E004D769817A818B819C816B
:1001C0000F900F900F900F90CF91DF910895DF93D4
:1001D000CF9300D000D0CDB7DEB749835A836B836D
:1001E0007C83682F70E0660F771F660F771F605063
:1001F0007040CE01019644E050E0F1D60F900F9090
:100200000F900F90CF91DF910895DF93CF93CDB7EB
:10021000DEB764970FB6F894DEBF0FBECDBFFE0108
:100220003196A0E1B1E094E10D9001929150E1F797
:10023000882351F4E62FF0E0EE0FFF1FE40FF11DCD
:10024000EC0FFD1F818101C080E064960FB6F89429
:10025000DEBF0FBECDBFCF91DF910895282F30E0D4
:10026000220F331F220F331F20503F4FC901089523
:10027000282F30E0220F331F220F331F2C5F3E4FF9
:10028000C9010895282F30E0220F331F220F331F9A
:10029000285F3E4FC9010895E82FF0E0EE0FFF1FE1
:1002A000EE0FFF1FE45FFE4F6081718182819381B9
:1002B00008959BB19F77882311F080E801C080E00A
:1002C000982B9BB9089580E0F4DF579A8AE18A95CC
:1002D000F1F781E0EEDF80E197E20197F1F7089511
:1002E000FF920F931F93082F81E0011180E0E1DF5F
:1002F00012E4812F8A95F1F7F9B0812F8A95F1F7F1
:10030000802FD7DF812F8A95F1F789B11A95F1F700
:1003100087FF0CC08F2D992787FD9095809590952C
:10032000392F331F3327331F832F02C080E090E023
:100330001F910F91FF900895579881E0D1DF579A50
:1003400008950F931F93DF93CF930F92CDB7DEB72E
:10035000182F08E0812F80786983C2DF110F0150C8
:1003600069810023B9F7862FBBDFE6DF0F90CF91BD
:10037000DF911F910F910895CF92DF92EF92FF923C
:100380000F931F93DF93CF930F92CDB7DEB77B010F
:10039000082F192FCC24DD2417C0F80181918F017B
:1003A0000894C11CD11CCE14DF0439F461E070E064
:1003B000442329F060E070E002C061E070E049830E
:1003C000C0DF4981882329F0CE14DF0430F381E0B7
:1003D00001C080E00F90CF91DF911F910F91FF90AE
:1003E000EF90DF90CF900895AF92BF92CF92DF92BF
:1003F000EF92FF920F931F93DF93CF930F92CDB79E
:10040000DEB77B01082F192FAA24BB241EC0089435
:10041000A11CB11C91E0AE14BF0409F490E0579800
:1004200088E0C82EDD2481E099835ADFDD0CD82ACC
:10043000CA949981CC20B9F7579AF801D1928F01CB
:10044000892F4EDF79DF882329F0AE14BF04F8F23C
:1004500081E001C080E00F90CF91DF911F910F915B
:10046000FF90EF90DF90CF90BF90AF90089580E025
:1004700020DF88E28A95F1F785E561E062CF80931D
:1004800026010895EF92FF920F931F93DF93CF936E
:1004900000D000D0CDB7DEB77C018A018091260163
:1004A000898383E08A837B836C830DDFF894DFDFAD
:1004B000CE01019664E070E040E05EDF882329F021
:1004C000C701B80191DF882311F4789402C07894B1
:1004D00081E00F900F900F900F90CF91DF911F91BF
:1004E0000F91FF90EF9008950F931F93FC014081AF
:1004F000318120E0828190E0822B932B25B134E082
:10050000232725B9413119F0433399F502C020DE84
:1005100030C08032910568F18097803251F5438177
:1005200050E060E070E0762F652F542F442704815F
:1005300010E020E030E0402B512B622B732B762F04
:10054000652F542F4427058110E020E030E0402B38
:10055000512B622B732B762F652F542F4427068146
:1005600010E020E030E0402B512B622B732B892FC1
:100570002EDE1F910F910895229A2A98219A299888
:100580002A9A81E064D480EA7ADF83E691E06AEF18
:1005900070E046E050E076DF85E0A6D288E193E0A7
:1005A000C6D284E792E0BED28ED2509A5898589A1A
:1005B00080E0A7D480E0AAD42A9878D27DDD81E0BB
:1005C00060E023D429980895D7DF80E06FEFA0DDA5
:1005D000CAEBD0E080E061E080DD2197D9F7789424
:1005E000FFCFCF92DF92EF92FF920F931F93C82E0F
:1005F00044E6D42EEE24FF2487018C2DAEDD36DDBB
:100600009C0140E050E0E20EF31E041F151FDA9437
:10061000A1F7C801B70124E630E040E050E09ED4E5
:10062000C9011F910F91FF90EF90DF90CF90089537
:100630002F923F924F925F926F927F928F929F92F2
:10064000AF92BF92CF92DF92EF92FF920F931F93E0
:10065000DF93CF93CDB7DEB7A6970FB6F894DEBF82
:100660000FBECDBF8E01095E1F4F80E1F8011192D0
:100670008A95E9F768DD1E821D8218861F821A8618
:1006800019861B861C861D861E861F86188A198A57
:100690001A8A1B8A1C8A1D8A1E8A19821A821B8248
:1006A0001C828130910559F08130910520F087300E
:1006B000910591F40CC081E08F8B61E0D5C1C80138
:1006C00063E671E046E050E072D466E0CDC163E1DC
:1006D00070E080E090E03AC08032910508F4C3C138
:1006E00080977C018432E9F1853238F48031B9F0A9
:1006F0008032D1F0882379F0A1C18C3291F18D3212
:1007000020F4883209F09AC112C0803399F0843302
:1007100009F094C11DC0892FB80121DD03C0892FC4
:10072000B80128DD60E1A0C1892F2FDD0FC0892F1E
:1007300095DD02C0892F9CDDBC01CE01019644E00D
:1007400050E035D469817A818B819C81A80174C184
:100750008F2D98DDBC01CE01019644E050E027D4F6
:1007600064C18F2D8DD33B014C018F2D97D35B013D
:100770006C018F2DA1D3A60CB71CC81CD91CA60ECA
:10078000B71EC81ED91EAB86BC86CD86DE868F2DD1
:1007900077D35B016C018F2D81D36A0D7B1D8C1D7E
:1007A0009D1D6F87788B898B9A8B8F2D69D36B8B6F
:1007B0007C8B8D8B9E8B8F2DA4D38F2DA7D300E2A6
:1007C0001EE4C8010197F1F78F2D0BDF1C019E83FA
:1007D0008D838F2DA5D3C8010197F1F78F2D01DFF0
:1007E0003C0198878F838F2D96D3C8010197F1F72D
:1007F0008F2DF7DE8C019A8789878F2D6BD33AE096
:10080000660F771F881F991F3A95D1F720E137E2CD
:1008100040E050E0A3D34424552422163306440676
:10082000550638F4DA01C90182199309A409B509FA
:1008300006C0D201C101821B930BA40BB50B8983A7
:100840009A83AB83BC83882499246216730684063A
:10085000950638F459016A01A618B708C808D908DE
:1008600006C064015301A21AB30AC40AD50A8A1544
:100870009B05AC05BD0510F45C016D01A816B90619
:10088000CA06DB06B1F0621673068406950638F4D4
:1008900039014A01621873088408950804C0621A75
:1008A000730A840A950A69827A828B829C8261E04B
:1008B00001C060E089819A81AB81BC815801CC2460
:1008C000DD24A216B306C406D50628F42A193B096E
:1008D0004C095D0908C035014601621A730A840A91
:1008E000950AA401930182179307A407B50710F492
:1008F0009C01AD01281739074A075B0709F062E040
:100900008E010F5F1F4F662E77242E2D2C32F1F4AF
:10091000F301EE0FFF1FE00FF11F6481758180E08E
:1009200090E0AE01495E5F4FA2D2F301EE0FFF1FD0
:10093000EE0FFF1FE00FF11F62857385848595859B
:10094000AE01455E5F4F93D268E08EC0F301EE0FBB
:10095000FF1FE00FF11F048115810115110529F416
:100960008FEF9FEFAFEFBFEF0BC0662371F48F2DBA
:10097000BFD20817190748F48EEF9FEFAFEFBFEF14
:1009800089839A83AB83BC8350C0B80180E090E038
:1009900028E833E140E050E0C8D25B016C01BAE0E6
:1009A000D694C794B794A794BA95D1F7A982BA827E
:1009B000CB82DC828F2D8ED26A197B098C099D092E
:1009C000F301EE0FFF1FEE0FFF1FEC0FFD1F23853E
:1009D000348545855685A9D2A6019501BFD2022F3F
:1009E000E32EA42E652E29833A834B835C838F2DBF
:1009F00053DC9B01AC01602F7E2D8A2D962D95D264
:100A0000662EA72EE82E092F69837A838B839C8319
:100A10008F2DBBDB9B01AC01662D7A2D8E2D902F87
:100A20009DD229833A834B835C8369817A818B8150
:100A30009C81AE01495E5F4F1AD215C00E2D10E0A9
:100A40000853104053E0169507955A95E1F78F2DFE
:100A5000602F40E0DADB8F8B8F2D602F41E0D5DBFC
:100A6000888F62E001C064E0CE01479641D0A6962F
:100A70000FB6F894DEBF0FBECDBFCF91DF911F91AF
:100A80000F91FF90EF90DF90CF90BF90AF909F902D
:100A90008F907F906F905F904F903F902F90089530
:100AA0008EBD0DB407FEFDCF8EB5089584B18C6266
:100AB00084B985B1837D85B98CB583618CBD8CB5D6
:100AC00080648CBD089510923B01E9EBF0E08081D9
:100AD0008E7F808380818D7F808380E28093B800C9
:100AE00085E48093BC000895880F8093BA00089530
:100AF0006131A0F420913B01243091F460935001C6
:100B0000DC01E3E5F1E070E06E0F7F1F02C08D9124
:100B10008193E617F707D9F780E0089581E00895FB
:100B200082E0089590934E0180934D010895909333
:100B30005201809351010895882311F085EC01C082
:100B400085E88093BC00089585ED8093BC0080917A
:100B5000BC0084FDFCCF10923B01089585EC80938E
:100B6000BC0010923B0108951F920F920FB60F9296
:100B700011242F933F934F935F936F937F938F93A2
:100B80009F93AF93BF93EF93FF938091B90090E051
:100B9000887F90708036910509F4C2C08136910536
:100BA000E4F58832910509F47EC089329105C4F4D8
:100BB0008031910509F472C08131910544F40097A8
:100BC00009F40FC18830910509F00EC167C0883162
:100BD000910509F468C08032910509F005C178C01B
:100BE0008034910509F48AC0813491054CF4803336
:100BF000910509F46FC08833910509F0F5C06EC006
:100C00008035910509F46EC08835910509F47BC0E3
:100C10008834910509F0E8C0E6C08839910509F4E7
:100C2000D8C089399105ECF48837910509F478C06A
:100C3000893791054CF48836910509F471C08037E5
:100C4000910509F0D1C06CC08838910509F4C1C084
:100C50008039910509F46AC08038910509F0C4C053
:100C600065C0803B910509F48CC0813B91054CF433
:100C7000803A910509F46CC0883A910509F0B4C036
:100C800080C0803C910509F4A7C0883C910509F417
:100C9000A3C0883B910509F0A7C088C080912701B7
:100CA0008093BB0013C0909128018091290198176F
:100CB00008F099C080912801E82FF0E0E65DFE4F32
:100CC00090819093BB008F5F8093280181E082C068
:100CD00080E201C080E380933A0185C088E380937D
:100CE0003A014DC0809128019091BB00E82FF0E0BF
:100CF000E65DFE4F90838F5F8093280190912801DD
:100D00008091290163C0809128019091BB00E82F58
:100D1000F0E0E65DFE4F90838F5F8093280163C013
:100D200083E080933B0110923C01D0CF80913C0145
:100D3000803108F04EC080913C019091BB00E82FBB
:100D4000F0E0E35CFE4F90838F5F80933C01BECF69
:100D500080913C01803130F4E0913C01F0E0E35CB3
:100D6000FE4F1082F1DE60913C01E0914D01F09167
:100D70004E018DE391E070E0099510923C01EEDEAA
:100D800033C084E080933B0110924F0110925001D8
:100D9000E0915101F0915201099580915001882311
:100DA00029F481E0809350011092530180914F010A
:100DB000E82FF0E0ED5AFE4F90819093BB008F5FDB
:100DC00080934F0190914F0180915001981708F442
:100DD0007DCF80E0B1DE08C081E0AEDE10923B0145
:100DE00003C010923A01B0DEFF91EF91BF91AF9135
:100DF0009F918F917F916F915F914F913F912F9133
:100E00000F900FBE0F901F90189590E048EC50E0A7
:100E10001BC0662311F4299A01C02A9A24EF31E0FD
:100E2000FA013197F1F721503040D1F7662311F4E0
:100E3000299801C02A9820ED37E0FA013197F1F79F
:100E400021503040D1F79F5F981718F3089590E034
:100E500048EC50E009C020E137E2FA013197F1F7A0
:100E600021503040D1F79F5F9817A8F30895FA01F9
:100E70009193DA0111968C9311977183628308958F
:100E8000882329F420EF35E540E050E004C02FEF3F
:100E90003FEF4FEF5FEFB901CA010895882329F4AE
:100EA00020EF35E540E050E004C02FEF3FEF4FEF7B
:100EB0005FEFB901CA010895882329F420EC34EDCD
:100EC00041E050E004C02FEF3FEF4FEF5FEFB9017B
:100ED000CA010895882329F428E833E140E050E06E
:100EE00004C02FEF3FEF4FEF5FEFB901CA01089544
:100EF000882319F42DEC31E002C02FEF3FEFC90138
:100F00000895882311F43F9847980895882311F491
:100F1000519859980895882311F43F9A4798089555
:100F2000882311F4519A59980895FF27EE27BB277B
:100F3000AA2760FF04C0A20FB31FE41FF51F220FF2
:100F4000331F441F551F969587957795679589F7A9
:100F50000097760771F7CF01BD010895A1E21A2E1F
:100F6000AA1BBB1BFD010DC0AA1FBB1FEE1FFF1F4D
:100F7000A217B307E407F50720F0A21BB30BE40B9D
:100F8000F50B661F771F881F991F1A9469F76095E4
:100F90007095809590959B01AC01BD01CF0108959E
:100FA000FB01DC0105900D920020E1F70895FB01A3
:100FB000DC0102C001900D9241505040D8F70895D5
:100FC000DC01862FE82FF999FECF1FBA05C0E1BDDD
:100FD000F89AE39500B40D924150C8F70895DC01EA
:100FE000862F02C02D9104D04150E0F70895262F9E
:100FF000F999FECF1FBA1FBA81BD20BD0FB6F89474
:0E100000FA9AF99A0FBE01960895F894FFCF60
:10100E0085B1053ACDCCCC3F6F12833AE803000090
:10101E00FE13C31D9D2B88367544615E4E883ADDE6
:04102E0035FEFFFF8D
:00000001FF
